{
  "contractName": "Faucet",
  "abi": [
    {
      "inputs": [],
      "name": "numOfFunders",
      "outputs": [
        {
          "internalType": "uint256",
          "name": "",
          "type": "uint256"
        }
      ],
      "stateMutability": "view",
      "type": "function"
    },
    {
      "inputs": [],
      "name": "owner",
      "outputs": [
        {
          "internalType": "address",
          "name": "",
          "type": "address"
        }
      ],
      "stateMutability": "view",
      "type": "function"
    },
    {
      "stateMutability": "payable",
      "type": "receive"
    },
    {
      "inputs": [],
      "name": "emitLog",
      "outputs": [
        {
          "internalType": "bytes32",
          "name": "",
          "type": "bytes32"
        }
      ],
      "stateMutability": "pure",
      "type": "function"
    },
    {
      "inputs": [],
      "name": "addFunds",
      "outputs": [],
      "stateMutability": "payable",
      "type": "function"
    },
    {
      "inputs": [
        {
          "internalType": "uint256",
          "name": "withdrawAmount",
          "type": "uint256"
        }
      ],
      "name": "withdraw",
      "outputs": [],
      "stateMutability": "nonpayable",
      "type": "function"
    },
    {
      "inputs": [],
      "name": "getAllFunders",
      "outputs": [
        {
          "internalType": "address[]",
          "name": "",
          "type": "address[]"
        }
      ],
      "stateMutability": "view",
      "type": "function"
    },
    {
      "inputs": [
        {
          "internalType": "uint8",
          "name": "index",
          "type": "uint8"
        }
      ],
      "name": "getFunderAtIndex",
      "outputs": [
        {
          "internalType": "address",
          "name": "",
          "type": "address"
        }
      ],
      "stateMutability": "view",
      "type": "function"
    }
  ],
  "bytecode": "0x608060405234801561001057600080fd5b50336000806101000a81548173ffffffffffffffffffffffffffffffffffffffff021916908373ffffffffffffffffffffffffffffffffffffffff1602179055506108d7806100606000396000f3fe6080604052600436106100745760003560e01c80638da5cb5b1161004e5780638da5cb5b14610111578063a26759cb1461013c578063af7f2c9b14610146578063f42c13bf146101715761007b565b80630a93cf33146100805780632e1a7d4d146100bd5780636fbbb55d146100e65761007b565b3661007b57005b600080fd5b34801561008c57600080fd5b506100a760048036038101906100a2919061057e565b61019c565b6040516100b4919061067c565b60405180910390f35b3480156100c957600080fd5b506100e460048036038101906100df9190610555565b6101dc565b005b3480156100f257600080fd5b506100fb610273565b6040516101089190610697565b60405180910390f35b34801561011d57600080fd5b506101266103b9565b604051610133919061067c565b60405180910390f35b6101446103dd565b005b34801561015257600080fd5b5061015b6104fd565b60405161016891906106f4565b60405180910390f35b34801561017d57600080fd5b50610186610503565b60405161019391906106b9565b60405180910390f35b6000600360008360ff16815260200190815260200160002060009054906101000a900473ffffffffffffffffffffffffffffffffffffffff169050919050565b8067016345785d8a0000811115610228576040517f08c379a000000000000000000000000000000000000000000000000000000000815260040161021f906106d4565b60405180910390fd5b3373ffffffffffffffffffffffffffffffffffffffff166108fc839081150290604051600060405180830381858888f1935050505015801561026e573d6000803e3d6000fd5b505050565b6060600060015467ffffffffffffffff8111156102b9577f4e487b7100000000000000000000000000000000000000000000000000000000600052604160045260246000fd5b6040519080825280602002602001820160405280156102e75781602001602082028036833780820191505090505b50905060005b6001548110156103b1576003600082815260200190815260200160002060009054906101000a900473ffffffffffffffffffffffffffffffffffffffff16828281518110610364577f4e487b7100000000000000000000000000000000000000000000000000000000600052603260045260246000fd5b602002602001019073ffffffffffffffffffffffffffffffffffffffff16908173ffffffffffffffffffffffffffffffffffffffff168152505080806103a9906107ac565b9150506102ed565b508091505090565b60008054906101000a900473ffffffffffffffffffffffffffffffffffffffff1681565b6000339050600260008273ffffffffffffffffffffffffffffffffffffffff1673ffffffffffffffffffffffffffffffffffffffff16815260200190815260200160002060009054906101000a900460ff166104fa57600060016000815480929190610448906107ac565b9190505590506001600260008473ffffffffffffffffffffffffffffffffffffffff1673ffffffffffffffffffffffffffffffffffffffff16815260200190815260200160002060006101000a81548160ff021916908315150217905550816003600083815260200190815260200160002060006101000a81548173ffffffffffffffffffffffffffffffffffffffff021916908373ffffffffffffffffffffffffffffffffffffffff160217905550505b50565b60015481565b60007f48656c6c6f20576f726c64000000000000000000000000000000000000000000905090565b60008135905061053a81610873565b92915050565b60008135905061054f8161088a565b92915050565b60006020828403121561056757600080fd5b60006105758482850161052b565b91505092915050565b60006020828403121561059057600080fd5b600061059e84828501610540565b91505092915050565b60006105b383836105bf565b60208301905092915050565b6105c881610759565b82525050565b6105d781610759565b82525050565b60006105e88261071f565b6105f28185610737565b93506105fd8361070f565b8060005b8381101561062e57815161061588826105a7565b97506106208361072a565b925050600181019050610601565b5085935050505092915050565b6106448161076b565b82525050565b6000610657602183610748565b915061066282610824565b604082019050919050565b61067681610795565b82525050565b600060208201905061069160008301846105ce565b92915050565b600060208201905081810360008301526106b181846105dd565b905092915050565b60006020820190506106ce600083018461063b565b92915050565b600060208201905081810360008301526106ed8161064a565b9050919050565b6000602082019050610709600083018461066d565b92915050565b6000819050602082019050919050565b600081519050919050565b6000602082019050919050565b600082825260208201905092915050565b600082825260208201905092915050565b600061076482610775565b9050919050565b6000819050919050565b600073ffffffffffffffffffffffffffffffffffffffff82169050919050565b6000819050919050565b600060ff82169050919050565b60006107b782610795565b91507fffffffffffffffffffffffffffffffffffffffffffffffffffffffffffffffff8214156107ea576107e96107f5565b5b600182019050919050565b7f4e487b7100000000000000000000000000000000000000000000000000000000600052601160045260246000fd5b7f43616e6e6f74207769746864726177206d6f7265207468616e20302e3120455460008201527f4800000000000000000000000000000000000000000000000000000000000000602082015250565b61087c81610795565b811461088757600080fd5b50565b6108938161079f565b811461089e57600080fd5b5056fea2646970667358221220a29b892260cd03ddedaefa76b268a321d0ac21deb5af94f11a0862aa2560ec9764736f6c63430008040033",
  "immutableReferences": {},
  "source": "// SPDX-License-Identifier: MIT\r\npragma solidity >=0.4.22 <0.9.0;\r\nimport \"./Owned.sol\";\r\nimport \"./Logger.sol\";\r\nimport \"./IFaucet.sol\";\r\n\r\ncontract Faucet is Owned, Logger, IFaucet {    \r\n    uint public numOfFunders;\r\n\r\n    mapping(address => bool) private funders;\r\n    mapping(uint => address) private lutFunders; // lut = lookup table\r\n\r\n\r\n\r\n    modifier limitWithdraw(uint withdrawAmount) {\r\n        require(\r\n            withdrawAmount <= 100000000000000000, // 0.1 ETH\r\n            \"Cannot withdraw more than 0.1 ETH\"\r\n        );\r\n        _;\r\n    }\r\n\r\n    receive() external payable {}\r\n\r\n    function emitLog() public override pure returns(bytes32) {\r\n        return \"Hello World\";\r\n    }\r\n\r\n    function addFunds() override external payable {\r\n        address funder = msg.sender;\r\n\r\n        if(!funders[funder]) {\r\n            uint index = numOfFunders++;\r\n            funders[funder] = true;\r\n            lutFunders[index] = funder;\r\n        } // prevent duplicates\r\n    }\r\n\r\n    function withdraw(uint withdrawAmount) override external limitWithdraw(withdrawAmount) {\r\n        payable(msg.sender).transfer(withdrawAmount);\r\n    }\r\n\r\n    function getAllFunders() external view returns(address[] memory) {\r\n        address[] memory _funders = new address[](numOfFunders);\r\n\r\n        for(uint i = 0; i < numOfFunders; i++) {\r\n            _funders[i] = lutFunders[i];\r\n        }\r\n\r\n        return _funders;\r\n    }\r\n\r\n    function getFunderAtIndex(uint8 index) external view returns(address) {\r\n        return lutFunders[index];\r\n    }\r\n}\r\n\r\n\r\n\r\n\r\n\r\n\r\n// truffle migrate --reset\r\n// truffle console\r\n\r\n// const instance = await Faucet.deployed()\r\n// instance.addFunds({value: \"1000000000000000000\"})\r\n// instance.addFunds({value: \"2000000000000000000\", from: accounts[1]})\r\n\r\n// instance.withdraw(\"100000000000000000\", {from: accounts[1]})\r\n\r\n// instance.getFunderAtIndex(0)\r\n// instance.getAllFunders()",
  "sourcePath": "C:\\Users\\Anil\\Desktop\\workspace-2023\\crypto-faucet\\contracts\\FaucetContract.sol",
  "compiler": {
    "name": "solc",
    "version": "0.8.4+commit.c7e474f2.Emscripten.clang"
  },
  "schemaVersion": "3.4.13",
  "updatedAt": "2023-03-28T02:11:24.157Z",
  "devdoc": {
    "kind": "dev",
    "methods": {},
    "version": 1
  },
  "userdoc": {
    "kind": "user",
    "methods": {},
    "version": 1
  }
}